:020000040800F2
:100000000000012079260008592500085B2500081A
:100010005D2500085F25000861250008000000003C
:100020000000000000000000000000006325000840
:100030006525000800000000672500086925000804
:10004000C9260008C9260008C9260008C9260008D4
:10005000C9260008C9260008C9260008C9260008C4
:10006000C9260008C92600086D250008C926000811
:100070007525000881250008C9260008C926000842
:10008000C9260008C9260008C9260008C926000894
:10009000C9260008C9260008C9260008C926000884
:1000A000C9260008C9260008C9260008C926000874
:1000B000C9260008C9260008C9260008C926000864
:1000C000C9260008C9260008C9260008C926000854
:1000D000C9260008C9260008C9260008C926000844
:1000E000C9260008C9260008C9260008C926000834
:1000F000C9260008C9260008C9260008C926000824
:10010000C92600080000000000000000C926000801
:10011000C9260008C9260008C9260008C926000803
:10012000C9260008C9260008C9260008C9260008F3
:10013000C9260008C92600080000000000000000D1
:10014000C9260008C9260008C926000800000000CA
:10015000000000000000000000000000000000009F
:10016000C9260008C9260008C9260008C9260008B3
:10017000C9260008C9260008C9260008C9260008A3
:10018000C9260008C9260008000000000000000081
:04019000C926000874
:1001A00010B5054C237833B9044B13B10448AFF3B1
:1001B00000800123237010BD7000002000000000AB
:1001C000E835000808B5034B1BB103490348AFF3FA
:1001D000008008BD0000000074000020E835000821
:1001E00001F0FF01102A2BDB10F0070F08D010F8E8
:1001F000013B013A8B422DD010F0070F42B3F6D1EC
:10020000F0B441EA012141EA014122F007047FF004
:1002100000070023F0E80256083C85EA010586EA5B
:10022000010685FA47F5A3FA87F586FA47F6A5FA97
:1002300087F68EB9EED1F0BC01F0FF0102F00702A3
:1002400032B110F8013B013A83EA010313B1F8D14E
:100250000020704701387047002D06BF354603382F
:10026000073815F0010F07D1013015F4807F02BF68
:10027000013015F4C03F0130F0BC0138704700BFB9
:1002800038B50E4A0E4B054618784FF47A73B3FB17
:10029000F0F31068B0FBF3F000F08CF8044658B9A6
:1002A0000F2D09D8024629464FF0FF3000F042F8E2
:1002B000044B20461D6038BD012038BD08000020D9
:1002C0000000002004000020074A08B5136843F02E
:1002D00010031360032000F01BF80020FFF7D0FF8D
:1002E00002F08EF8002008BD00200240034A044BB3
:1002F00011681B780B441360704700BFA4000020F6
:1003000000000020014B1868704700BFA4000020C7
:10031000074AD36823F4E0631B041B0C43F0BF635C
:10032000000243F4003300F4E0600343D3607047FD
:1003300000ED00E0174B30B5DC68C4F30224C4F1D3
:100340000703251D042B28BF0423062D4FF00105AC
:1003500005FA03F303F1FF338CBF033C002419407B
:10036000A14005FA04F4013C2240002842EA0102BF
:100370004FEA0212AFBF00F1604000F00F00064BE1
:10038000D2B2A5BF00F56140D2B21A5480F8002362
:1003900030BD00BF00ED00E014ED00E04209012394
:1003A00000F01F0003FA00F0014B43F822007047F1
:1003B00000E100E00138B0F1807F0AD2064B074A25
:1003C0005860F02182F823100020072298601A60FC
:1003D00070470120704700BF10E000E000ED00E032
:1003E00001680C4B994210B54FF0140409D80A4A21
:1003F0000A44B2FBF4F292000264A3F20743C3631F
:1004000010BD064B0B44B3FBF4F39B000364044B99
:10041000F5E700BF07040240F8FFFDBFF8FBFDBF92
:100420000004024038B5044608B30223856880F80A
:100430002130436801682B43C5680A682B4305696E
:100440002B4345692B4385692B43C56922F47F52B1
:1004500022F030022B4313430B60FFF7C1FF002053
:100460000123A06384F8213084F8200038BD0120E6
:1004700038BDF0B590F82040012C35D090F82150CF
:100480000124A54280F820404FF000064FF00204FE
:1004900028D180F82140046886632668076C26F01E
:1004A00001062660C66BBD407560636043680568E1
:1004B000102BC36A0BBFA260A160E160E2604BB188
:1004C000236843F00E0323602B6843F001032B6085
:1004D0000020F0BD236843F00A032360236823F063
:1004E0000403F0E780F820600220F0BD0268116884
:1004F00021F00E0111601168034621F00101116025
:100500001A6CC06B012101FA02F24260002083F8EC
:10051000211083F820007047C16B026C036870B42F
:100520000E681D680424944026420ED015F0040F76
:100530000BD01A6892065EBF1A6822F004021A6095
:10054000C36A4C6073B370BC1847022494402642BF
:1005500012D015F0020F0FD01A68950606D41A684B
:1005600022F00A021A60012380F8213000234C6037
:1005700080F82030836AE5E708249440344211D0A3
:100580002C070FD51C6824F00E041C60012303FA0D
:1005900002F24A60836380F82130002380F8203023
:1005A000036BCFE770BC70472DE9F74FD1F800809F
:1005B000DFF89091614A002338FA03F402D103B0C6
:1005C000BDE8F08F4FF0010E0EFA03FE18EA0E069A
:1005D00000F0A6804C6824F01007022F16D14FEAD5
:1005E000D30A00EB8A0A03F0070BDAF820504FEA2F
:1005F0008B0B4FF00F0C0CFA0BFC25EA0C0C0D6961
:1006000005FA0BF545EA0C05CAF820504FEA430AF3
:100610000325D0F800B005FA0AF5ED4304F0030C09
:100620000BEA050B0CFA0AFC013F4CEA0B0C012FFC
:10063000C0F800C011D8876807EA050BCF6807FA31
:100640000AFC4CEA0B078760476827EA0E0EC4F3E2
:1006500000179F4047EA0E074760C7683D408F6814
:1006600007FA0AF73D43C560E50059D5D9F8185097
:1006700045F00105C9F81850D9F8185023F00307C0
:1006800007F1804705F0010507F58037019503F074
:10069000030C019DBD684FEA8C0C4FF00F0E0EFA53
:1006A0000CFEB0F1904F25EA0E0E3BD0244DA8422F
:1006B0003AD005F58065A84238D005F58065A84296
:1006C00036D005F58065A84234D005F58065A8428E
:1006D00032D005F58065A84214BF0725062505FA26
:1006E0000CF545EA0E05BD601568F74314F4803F2C
:1006F0000CBF3D4035431560556814F4003F0CBFF6
:100700003D4035435560956814F4801F0CBF3D4053
:1007100035439560D568A40254BF3D403543D5604C
:10072000013349E70025DAE70125D8E70225D6E7B6
:100730000325D4E70425D2E70525D0E700040140CE
:1007400000040048001002400369194214BF012050
:10075000002070470AB18161704781627047436928
:10076000594041617047000008B5044B5969014286
:1007700002D0586101F082FC08BD00BF00040140B6
:100780002DE9F347054618B9012002B0BDE8F0870E
:100790000368DF0711D42B689E0700F188802B685F
:1007A0001C0700F1FC802B68580700F14581AA69FD
:1007B000002A40F0DC810020E7E7BD4C636803F0CD
:1007C0000C03042B0AD0636803F00C03082B19D127
:1007D000636803F4C033B3F5803F13D14FF40033A3
:1007E00093FAA3F2216893FAA3F3B3FA83F303F025
:1007F0001F03012202FA03F30B42CCD06B68002BDB
:10080000C9D1C1E76B68B3F5803F1ED1236843F4BB
:1008100080332360FFF776FD4FF4003680460127D2
:1008200096FAA6F3226896FAA6F3B3FA83F303F0D6
:100830001F0307FA03F31342ADD1FFF763FDA0EBEB
:1008400008006428ECD903209FE70BBB236823F43E
:1008500080332360236823F480232360FFF752FD55
:100860004FF400368046012796FAA6F3226896FADE
:10087000A6F3B3FA83F303F01F0307FA03F313425B
:1008800089D0FFF73FFDA0EB08006428ECD9DAE738
:10089000B3F5A02F236803D143F480232360B5E789
:1008A00023F480332360236823F48023B1E7804C52
:1008B000636813F00C0F0AD0636803F00C03082B75
:1008C00025D1636803F4C033B3F5004F1FD1022371
:1008D00093FAA3F2216893FAA3F3B3FA83F303F034
:1008E0001F03012202FA03F30B4203D0EB68934289
:1008F0007FF44AAF2168F82393FAA3F3B3FA83F2A3
:100900002B69934021F0F8021343236047E7EA681C
:1009100001260AB396FAA6F3B3FA83F303F18453DC
:1009200003F584139B0002271E60FFF7EBFC804653
:1009300097FAA7F3226897FAA7F3B3FA83F303F0C1
:100940001F0306FA03F31342D4D1FFF7DBFCA0EB3D
:1009500008000228ECD976E796FAA6F3B3FA83F3F7
:1009600003F1845303F584139B0002271A60FFF7F9
:10097000C9FC804697FAA7F3226897FAA7F3B3FA5F
:1009800083F303F01F0306FA03F313423FF407AFA8
:10099000FFF7B8FCA0EB08000228EBD953E76A691F
:1009A000434E444901241AB394FAA4F3B3FA83F3EF
:1009B0000B449B0002271C60FFF7A4FC804697FABB
:1009C000A7F397FAA7F397FAA7F3726A97FAA7F330
:1009D000B3FA83F303F01F0304FA03F313427FF423
:1009E000E2AEFFF78FFCA0EB08000228E7D92AE768
:1009F00094FAA4F3B3FA83F30B449B0002271A6022
:100A0000FFF780FC804697FAA7F397FAA7F397FAC7
:100A1000A7F3726A97FAA7F3B3FA83F303F01F03FD
:100A200004FA03F313423FF4BEAEFFF76BFCA0EBF6
:100A300008000228E7D906E71D4CE369D90034D441
:100A4000E36943F08053E361E36903F0805301936A
:100A5000019B0126184F3B68DA052FD5AB68012BA7
:100A60003DD1236A43F001032362FFF74BFC0227C9
:100A70008246B9464FF0010897FAA7F397FAA7F311
:100A8000002B6CD0226A99FAA9F3B3FA83F303F02E
:100A90001F0308FA03F3134258D0002E3FF487AE29
:100AA000E36923F08053E36181E60026D2E700BFCB
:100AB0000010024020819010007000403B6843F419
:100AC00080733B60FFF71EFC80463B68DB05C5D4A6
:100AD000FFF718FCA0EB08006428F6D9B3E63BBB8F
:100AE000236A23F001032362236A23F004032362B1
:100AF000FFF708FC02278246B9464FF0010897FA33
:100B0000A7F397FAA7F373B3226A99FAA9F3B3FA92
:100B100083F303F01F0308FA03F31342BDD0FFF77A
:100B2000F1FB41F28833A0EB0A009842E7D98AE64C
:100B3000052B236A03D143F00403236291E723F0DA
:100B400001032362236A23F004038DE7FFF7DAFB36
:100B500041F28833A0EB0A0098428DD973E697FAE8
:100B6000A7F3626A8FE797FAA7F3626ACDE7444C6E
:100B7000636803F00C03082B3FF406AE022A4FF023
:100B8000807358D193FAA3F3B3FA83F303F1845338
:100B900003F584139B0000221A60FFF7B3FB4FF0AC
:100BA00000778046012697FAA7F3226897FAA7F301
:100BB000B3FA83F303F01F0306FA03F3134233D1AE
:100BC000E36A6A6A23F00F031343E36262682B6AE5
:100BD000E96922F476120B43134363604FF080738C
:100BE00093FAA3F3B3FA83F303F1845303F5841365
:100BF0009B004FF000751E60FFF784FB012607463F
:100C000095FAA5F3226895FAA5F3B3FA83F303F0F6
:100C10001F0306FA03F313427FF4CDADFFF772FB17
:100C2000C01B0228ECD90EE6FFF76CFBA0EB080016
:100C30000228B8D907E693FAA3F3B3FA83F303F1D2
:100C4000845303F584139B0000221A60FFF75AFBBC
:100C50004FF000750746012695FAA5F3226895FA2C
:100C6000A5F3B3FA83F303F01F0306FA03F3134269
:100C70003FF4A1ADFFF746FBC01B0228ECD9E2E52B
:100C80000010024011494B6803F00C02082A1AD1E7
:100C90004FF4701292FAA2F20F20B2FA82F2C96AED
:100CA00090FAA0F0B0FA80F001F00F0103F4701395
:100CB000D340C140064A0748415C0748B0FBF1F108
:100CC000D05C484370470448704700BF00100240A2
:100CD000003600081036000800127A002DE9F041B5
:100CE0000D46044610B90120BDE8F0814C4A136856
:100CF00003F007038B422ED32268910736D4D20724
:100D00003CD4474A136803F007039D4275D3226819
:100D1000444D12F0040F7CD1130706D56B6822698D
:100D200023F4605343EAC2036B60FFF7ABFF6B68C9
:100D3000F02292FAA2F2B2FA82F203F0F003D34068
:100D4000394AD35CD840394B18600020FFF798FA35
:100D50000020BDE8F081136823F007030B43136004
:100D6000136803F007039942BDD1C5E72D49A06878
:100D70004B6823F0F00303434B60C0E76268294EE1
:100D8000012A27D14FF4003393FAA3F1316893FA83
:100D9000A3F3B3FA83F303F01F0302FA03F30B4246
:100DA000A1D0736823F003031A437260FFF7AAFA15
:100DB00041F2883807467368626803F00C03B3EBAE
:100DC000820F9ED0FFF79EFAC01B4045F3D9032047
:100DD000BDE8F081022A0CBF4FF00073022393FAA2
:100DE000A3F1306893FAA3F3B3FA83F303F01F037C
:100DF000012101FA03F30342D2E7136823F007034A
:100E00002B431360136803F007039D427FF46BAF1D
:100E10007DE76B68E16823F4E0630B436B607BE77D
:100E20000020024000100240843A00080800002020
:100E3000084B4FF4E0625B6892FAA2F2B2FA82F2D7
:100E400003F4E063D340044AD35C044A1068D840FA
:100E5000704700BF00100240943A000808000020CC
:100E6000084B4FF460525B6892FAA2F2B2FA82F237
:100E700003F46053D340044AD35C044A1068D8405A
:100E8000704700BF00100240943A0008080000209C
:100E900003682DE9F347DF03044623D59B4DEB6937
:100EA000DE0000F1D780EB6943F08053EB61EB6922
:100EB00003F080530193019B0126954F3B68D805B1
:100EC00040F1CA802B6A13F4407340F0DA802B6A39
:100ED000626823F4407313432B621EB1EB6923F065
:100EE0008053EB612068C30706D5884AA168136B5D
:100EF00023F003030B431363870706D5834AE16896
:100F0000136B23F440330B431363460706D57F4A24
:100F10002169136B23F440230B431363850606D525
:100F20007A4AE169136B23F010030B4313638103C7
:100F300006D5764A616D536823F480030B435360F2
:100F4000420606D5714A216A136B23F020030B4336
:100F50001363430306D56D4A616A136B23F04003A4
:100F60000B431363070706D5684A6169136B23F4C3
:100F700040130B431363C60606D5644AA169136B7D
:100F800023F440030B431363850506D55F4A216BA9
:100F9000536823F400030B435360010606D55B4AF4
:100FA000A16AD36A23F4F8730B43D362C20506D552
:100FB000564AE16AD36A23F478530B43D362C304DD
:100FC00006D5524A616B136B23F480730B43136392
:100FD000870406D54D4A216C136B23F400730B4331
:100FE0001363C60206D5494AA16B136B23F08073C5
:100FF0000B431363850206D5444AE16B136B23F060
:1010000000730B431363410206D5404A616C136BB6
:1010100023F480630B431363020206D53B4AA16CA1
:10102000136B23F400630B431363C30106D5374AE4
:10103000E16C136B23F400530B43136310F0007047
:101040001CD0324A216D136B23F400430B4313630E
:10105000002013E0002630E73B6843F480733B60D8
:10106000FFF750F980463B68D9053FF52BAFFFF7F6
:1010700049F9A0EB08006428F5D9032002B0BDE8C7
:10108000F087626802F4407293423FF420AF296A0D
:101090004FF4803321F4407093FAA3F2DFF874E048
:1010A000B2FA82F2724492000127176093FAA3F316
:1010B000B3FA83F373449B0000221A60CA072862C4
:1010C0007FF505AFFFF71EF94FF002088246C146D3
:1010D00098FAA8F398FAA8F3A3B12A6A99FAA9F39F
:1010E000B3FA83F303F01F0307FA03F313427FF409
:1010F000EEAEFFF707F941F28833A0EB0A00984201
:10110000E6D9BAE798FAA8F36A6AE7E7001002405E
:10111000007000400081901003685A6822F0E002DD
:101120005A604268B2F5827F0AD18268B2F5004FF8
:1011300002D0B2F5806F03D11A6822F040021A6023
:10114000826AB2F5005F07D11A6822F400521A6071
:101150001A6842F400521A60012380F85D300023BF
:1011600080F85C300320704770B505460C46164683
:101170002B68986810F080000DD0621CF9D024B95B
:101180002846BDE87040FFF7C7BFFFF7BBF8801BDC
:101190008442EDD8F4E770BDF7B506460C46154617
:1011A0001F463168886820400ED0B4F5C06F01BF7B
:1011B0000A7BD2B28DF807209DF807306B1CF1D066
:1011C00025B93046FFF7A8FF03B0F0BDFFF79AF846
:1011D000C01B8542E5D8F4E703681A6813B522F00E
:1011E00040021A601A4A45F6C0511268B2FBF1F18A
:1011F00064224A4301925A6822F0E00204465A608F
:10120000019A511E0191F2B9236E43F04003236607
:10121000FFF778F8642102462046FFF7A5FF08B1E2
:1012200040232366FFF76EF8642203464FF4C06143
:101230002046FFF7B1FF08B140232366072384F857
:101240005D3002B010BD5A685206D9D4E0E700BF45
:101250000800002070B513460D4616460A464FF4A6
:10126000C0510446FFF798FF28B1236E43F02003D6
:10127000236603200FE0324629462046FFF774FF1D
:101280000028F2D133462A464FF4C0612046FFF7CA
:1012900083FF0028E9D170BD13B51D4B45F6C05240
:1012A0001B68B3FBF2F264235343019303685A684B
:1012B00022F0E00204465A60019A511E01911ABBC5
:1012C000236E43F040032366FFF71CF864210246B7
:1012D0002046FFF7BFFF08B140232366226813684A
:1012E00023F040031360FFF70DF8642203464FF428
:1012F000C0612046FFF750FF08B140232366072353
:1013000084F85D3002B010BD5A681206D4D4DBE711
:1013100008000020F8B54368B3F5827F04460E4606
:1013200017460BD18368B3F5004F02D0B3F5806F39
:1013300004D123681A6822F040021A603A46314606
:101340002046FFF711FF054628B1236E43F0200326
:101350002366032513E06368B3F5827F0FD1A3688A
:10136000B3F5004F02D0B3F5806F08D13B4632464B
:101370004FF4C0612046FFF70FFF0028E5D1284653
:10138000F8BD70B5044600284ED00023836290F863
:101390005D3003F0FF021BB980F85C2001F048F8D3
:1013A0000223216884F85D300B68E26823F0400373
:1013B000B2F5E06F0B604FF0000332D91846B2F57A
:1013C000706F18BFA362236B2BB9B2F5E06F8CBFAF
:1013D000022301232363A6686368A5693343266952
:1013E000334366693343E6693343266A3343A66A67
:1013F000334305F4007633430B60636A1A43636B2F
:101400002D0C1A4305F004052A4302434A60CB69B8
:1014100023F40063CB6100200123206684F85D3053
:1014200070BD4FF48050CCE7012070BD90F85C3067
:10143000012B10B5044668D0012380F85C3090F889
:101440005D00C0B298425ED1002950D0002A4ED033
:10145000032384F85D30002323662364E287236539
:10146000A4F84630E364A4F84430A368A287226855
:10147000606DA163B3F5004F02BF136843F480436E
:101480001360234BC362234B8362234B036300230C
:101490004363536823F480435360E368B3F5E06F1C
:1014A0000FD84369B3F5806F0BD1E38F13F0010FB1
:1014B000536820D123F480435360E38FC3F34E037A
:1014C000E387E38F0C329BB2FEF7D3FF23681A68E1
:1014D00052065EBF1A6842F040021A605A6842F033
:1014E00020025A605A6842F002025A60002000232B
:1014F00084F85C3010BD43F480435360E38FC3F342
:101500004E030133DCE70220F1E7022010BD00BFEB
:1015100069190008AF1900088D19000838B504468C
:1015200090F85C00012800F0BC80012084F85C0089
:1015300094F85D00C0B201280BD06568B5F5827FD4
:1015400040F0AB80A568002D40F0A780042840F053
:10155000A480002900F0A380002A00F0A080002BC6
:1015600000F09D8094F85D00226404281CBF0520D3
:1015700084F85D002268A16300202066E387A4F858
:1015800046305168E06421F4C0412065A387A4F887
:1015900044305160E168A06DB1F5E06F21683FD93A
:1015A000536823F48053536094F85D30226C042B0D
:1015B0000BBF3D4B3D4BC362C3620CBF3C4B3D4B2D
:1015C00083623D4B0363B4F8463000259BB20C3177
:1015D0004563FEF74EFF2268606D5368A16B43F0D0
:1015E00001035360E38FC5629BB20C3285620563D1
:1015F0004563FEF73EFF23681A6852065EBF1A680D
:1016000042F040021A605A6842F020025A605A685A
:1016100042F002025A600020002384F85C3038BD9A
:10162000556845F480555560656D6D69B5F5806FF9
:101630000AD113F0010F53681ED123F48043536085
:10164000E38FC3F34E03E3874369B3F5806FABD1F8
:10165000536823F480535360B4F8463013F0010FFD
:10166000536811D123F400535360B4F84630C3F3E8
:101670004E03A4F8463097E743F480435360E38F6A
:10168000C3F34E030133DEE743F400535360B4F871
:101690004630C3F34E030133EBE70220BCE70120E1
:1016A000BAE7022038BD00BF75190008811900088B
:1016B000191A00086D1A00088D190008134682686F
:1016C00070B504460D465AB94668B6F5827F07D113
:1016D000042280F85D20BDE870400A46FFF71EBF77
:1016E00094F85C10012979D094F85D000121C0B212
:1016F000884284F85C106FD1002D45D0002B43D078
:10170000042184F85D1000212166E164A4F84630CC
:101710002165E187A1872168A4F84430B2F5004F24
:1017200008BF0B68256404BF23F480430B604B683B
:10173000A06D23F400534B60E368B3F5E06F4B6892
:1017400026D923F480534B60254BC362254B83621B
:10175000254B036300234363B4F846302A469BB20B
:101760000C31FEF786FE23681A6852065EBF1A68BF
:1017700042F040021A605A6842F020025A605A68E9
:1017800042F001025A600020002384F85C3070BDF2
:1017900043F480534B604369B3F5806FD4D14B68F9
:1017A00023F480534B60B4F8463013F0010F4B68BC
:1017B00009D123F400534B60B4F84630C3F34E0311
:1017C000A4F84630C0E743F400534B60B4F8463009
:1017D000C3F34E030133F3E70220D5E7022070BDC7
:1017E00075190008191A00088D1900081FB5594B02
:1017F00045F6C0521B68B3FBF2F2642353430193D6
:10180000019B009303685A68044610060DD5524A9E
:101810002265009A511E0091002A40F08F80226EAE
:1018200042F040022266019A00925A6851060DD594
:101830004A4AE264009A511E0091002A40F08480D6
:10184000226E42F040022266019A00925A6822F00B
:1018500020025A605A68920702D45B68DB0751D5B0
:10186000606D30B300234363FEF740FE08B14023B0
:1018700023662268536823F002035360FEF742FD9B
:10188000642102462046FFF7E5FC08B140232366A9
:101890002268136823F040031360FEF733FD6422CF
:1018A00003464FF4C0612046FFF776FC08B14023A1
:1018B0002366A06D30B300234363FEF717FE08B123
:1018C000402323662268136823F040031360FEF769
:1018D00019FD642102462046FFF746FC08B140236B
:1018E0002366FEF70FFD642203464FF4C0612046D5
:1018F000FFF752FC08B1402323662268536823F0A7
:10190000010353600023A4F84630E387226E402A87
:10191000226818BF23660293D168029191680291F0
:101920000299039318BF184693680393039B08BF5B
:101930000120012384F85D3004B010BD94F85D20CF
:10194000072A7FF466AF6EE794F85D20072A7FF4DC
:1019500071AF79E70800002099120008D91100083A
:10196000704770477047704708B5406AFFF7FBFF44
:1019700008BD704708B5406AFFF7FBFF08BD704718
:1019800008B5406AFFF7FBFF08BD7047406A026870
:1019900008B5536823F003035360036E43F010034C
:1019A0000366012380F85D30FFF7EFFF08BD37B510
:1019B0000546446AFEF7A6FC2B681B689B06024698
:1019C00026D42368596821F020015960596821F014
:1019D0000201596020466421FFF73CFC18B1236ED8
:1019E00043F020032366A36833B901932368DA68C0
:1019F00001929B680193019B0023E387012384F8F4
:101A00005D30236E23B12046FFF7BFFF03B030BD2A
:101A10002046FFF7A5FFF9E738B50546446AFEF70B
:101A200071FC2B681B689B0602461BD4236859680F
:101A300021F020015960596821F0030159602046C6
:101A40006421FFF767FC08B1202323660023A4F874
:101A50004630012384F85D30236E1BB12046FFF72A
:101A600094FF38BD2046FFF77CFF38BD38B50546EA
:101A7000446AFEF747FC2B681B689B0602461FD48E
:101A800021684B6823F020034B6020466421FFF758
:101A9000E1FB18B1236E43F02003236622685368EC
:101AA00023F0030353600023E387A4F846300123A7
:101AB00084F85D30236E1BB12046FFF766FF38BD0A
:101AC0002046FFF74FFF38BD38B504460568216949
:101AD000A268C36928680A4361690A4377491A43BF
:101AE00001400A432A606A68E168206A22F4405291
:101AF0000A436A60A968A26921F4306102430A437B
:101B0000AA606F4A954212D102F558426D49126B94
:101B100002F00302B3F5004F8A5C66D0082A19D898
:101B2000DFE802F0C2929E18A9181818AC00664AA5
:101B3000954224D102F5E632126B02F44032B2F53E
:101B4000803F00F0A08007D8002A00F0AA80B3F5FB
:101B5000004F76D0012038BDB2F5003F00F09980EB
:101B6000B2F5403FF3D1B3F5004F79D16068430837
:101B700003F5740303F51053B3FBF0F354E0534A39
:101B800095420ED102F5E432126B02F44022B2F516
:101B9000802F78D0D8D9B2F5002F7AD0B2F5402F67
:101BA000E0E74B4A95420ED102F5E232126B02F4A5
:101BB0004012B2F5801F66D0C6D9B2F5001F68D0BA
:101BC000B2F5401FCEE7434A9542C0D102F5E0325C
:101BD000126B02F44002B2F5800F54D0B4D9B2F5C2
:101BE000000F56D0B2F5400FBCE7082A29D801A350
:101BF00053F822F0191C00083D1C00086D1B00085A
:101C0000431C00088D1C0008431C0008431C0008EE
:101C1000431C0008991C0008FFF70AF961684A088C
:101C200002EB4003B3FBF1F39BB2002023F00F0261
:101C30002168C3F342031343CB6038BDFFF710F9AB
:101C4000ECE701200023F1E7FFF70AF9636800EBF6
:101C50005300B0FBF3F01A4B80B2D860002038BDBF
:101C60006268530803F5F40303F59053B3FBF2F3F2
:101C70009BB2EB60F2E7FFF705F817E062685308E4
:101C800003F50043F2E7B3F5004FF4D1FEF7FAFF96
:101C9000C4E7B3F5004FF1D16068430803F5803322
:101CA0006AE7B3F5004FB7D0FFF7C2F8636800EBFF
:101CB0005300B0FBF3F080B2E860CFE7F369FFEFC9
:101CC0000038014020360008004400400048004031
:101CD000004C004000500040436ADA0710B506D5BA
:101CE0000168846A4A6822F4003222434A609C07F1
:101CF00006D50168C46A4A6822F4803222434A60E9
:101D0000590706D50168046B4A6822F480222243F1
:101D10004A601A0706D50168446B4A6822F40042FB
:101D200022434A60DC0606D50168846B8A6822F487
:101D3000805222438A60990606D50168C46B8A687E
:101D400022F4005222438A605A060FD50168046CBF
:101D50004A6822F480122243B4F5801F4A6005D1FC
:101D60004A68446C22F4C00222434A601B0606D52E
:101D70000268816C536823F400230B43536010BD49
:101D80002DE9F041069D04460F4616469846216807
:101D9000CA6937EA02030CBF01220022B24202D014
:101DA0000020BDE8F0816B1CF2D09DB923681A6851
:101DB00022F4D0721A609A6822F001029A602023FD
:101DC00084F8693084F86A30002384F8683003208E
:101DD000BDE8F081FEF796FAA0EB08008542D6D266
:101DE000E4E72DE9F3411F4690F86930202B0446C3
:101DF0000D4690464CD1002948D0002A46D090F894
:101E00006830012B44D0012380F868300023C3667A
:101E1000212380F86930FEF775FAA4F85080064651
:101E2000A4F85280B4F8522092B262B900973346B7
:101E300040212046FFF7A4FF98B9202384F8693099
:101E400084F868000EE0B4F852300097013B9BB272
:101E5000A4F852300022334680212046FFF790FF3D
:101E600018B1032002B0BDE8F081A3682268B3F581
:101E7000805F07D123692BB935F8023BC3F3080310
:101E80001385CFE72B7813850135CBE70120E9E7F0
:101E90000220E7E773B504460026C666FEF732FA6D
:101EA00023681B681A07054617D423681B685B075D
:101EB0000AD56FF07E43009300222B464FF4800139
:101EC0002046FFF75DFFA0B92023002084F8693089
:101ED00084F8680084F86A300CE06FF07E43009369
:101EE000324603464FF400112046FFF749FF002811
:101EF000DBD0032002B070BD10B5044660B390F88B
:101F0000693003F0FF021BB980F8682000F0F2FA94
:101F10002268242384F86930136823F001031360D6
:101F20002046FFF7D1FD012816D0636A13B1204681
:101F3000FFF7D2FE23685A6822F490425A609A68EA
:101F400022F02A029A601A6842F0010220461A60C2
:101F5000BDE81040FFF79EBF012010BD30B5A7B00F
:101F60002822002106A800F0DBFB1422002101A892
:101F700000F0D6FB5822002110A800F0D1FB01236D
:101F80000225099306A8102300240A930695FEF75C
:101F9000F7FB0F23019321464FF4806301A80493BC
:101FA000029403940594FEF799FE10A810951394DB
:101FB000FEF76EFF27B030BD07B502A94FF6FF73DD
:101FC00041F8040D01220348FFF70BFF019803B00D
:101FD0005DF804FB10030020064A115C104483786E
:101FE0004278C0781B0403EB02230B4403EB006030
:101FF000704700BFA8010020074B22221A7033222D
:102000005A70D97098700422002199540132B2F5A7
:10201000807FFAD1704700BFA80000200023044A47
:10202000194699540133B3F5807FFAD1704700BF48
:10203000A801002073B50E4C054620460E46FFF75A
:10204000D5FB002301932368DA6801929B68019312
:10205000019B36B12A4607492046FFF7E7F902B04F
:1020600070BD4FF4807204492046FFF727FBF6E766
:10207000AC020020A8000020A8010020102808B50C
:10208000014622D14FF09040FEF75EFB01280FD1B0
:10209000104A136843F4807313600F4B1A78052AB3
:1020A00002D102221A7008BD032A0ED10022F9E7DC
:1020B00058B9094B1A78052A08D103221A70054B22
:1020C0009A681A6822F480721A6008BD012AF6D153
:1020D0000522F3E700300140A802002070B5094E48
:1020E00002460023141AA14201DC184670BD12F802
:1020F000015B1C0285EA134324F07F4456F8233029
:102100006340EFE78436000873B5124C061D0546A0
:1021100031462046FFF7E2FF030EA3552C44C0F3DF
:10212000074301906371E071C0F30723012105F1BA
:102130000800A371FFF77EFF074B38B905221A701C
:10214000064A13680133136002B070BD04221A708E
:10215000FAE700BFA8000020A80200209400002099
:1021600008B512200121FFF747FF034B012018712A
:10217000BDE80840FFF7C8BFA800002008B512203E
:102180000121FFF739FF044B00221A710120BDE83D
:102190000840FFF7B9BF00BFA8000020F8B5294DDF
:1021A00029782C4641B94FF48070FFF743FF00288F
:1021B00047D101232B70F8BD022942D1224E23487A
:1021C000FFF714FB3378222B02D17378332B08D01E
:1021D0001F4A136801331360FFF720FF00232370A9
:1021E000F8BDF4780434E4B221463046FFF776FFB8
:1021F00007462046FFF7F0FE8742044611D01548F7
:1022000000F096FA3A462146134800F091FAFFF79B
:10221000B5FF0F4A136801331360FFF7FFFE002379
:10222000C8E7B378162B09D1FFF79AFF0B4A13685A
:1022300001331360BDE8F840FFF7F0BE00232B70B8
:10224000F4E7F8BDA8020020A8010020AC0200209D
:102250008C00002024360008303600089000002052
:10226000F0B5574D89B0FEF72FF8FFF777FE14222F
:10227000002103A800F054FA6B69524843F480032C
:102280006B616B6903F480030093009B6B6943F4FB
:1022900000336B616B6903F400330193019B6B693D
:1022A00043F480236B616B6903F480230022029363
:1022B0004FF48041029BFEF74DFA10230024039354
:1022C00003A9414B04934FF090400594FEF76CF93D
:1022D0004FF48043039303A901233A4804930594E0
:1022E0000694FEF761F9224621460A20FEF722F8FD
:1022F0000A20FEF753F86B6943F001036B616B69C9
:1023000003F001032246214603930C20039BFEF7B2
:1023100011F80C20FEF742F8214622460D20FEF768
:1023200009F80D20FEF73AF82848294B846080E828
:1023300018004FF4E063C3604FF400738361072318
:10234000C36204614461046244628462046344635E
:10235000FFF717F81F48204A84604FF4E13380E804
:102360000C000C234361C46004618461C461046295
:102370004462FFF7C1FD194B19491A4A1C702346E4
:102380006354A3540134B4F5807FF9D116480D4F3E
:10239000164E174D00F040FA4CF250344FF4804185
:1023A0003846FEF7DCF9FFF7F9FE013CF6D111499A
:1023B00033682A680968104800F0BAF9ECE700BFF2
:1023C000001002400004004800003110AC02002060
:1023D000003001401003002000440040A80200200B
:1023E000A8010020A8000020543600089400002016
:1023F0008C00002090000020633600087047000029
:102400000A4B9A6942F001029A619A6982B002F01D
:1024100001020092009ADA6942F08052DA61DB69C7
:1024200003F080530193019B02B0704700100240FB
:1024300030B5054689B01422002103A800F070F9D8
:102440002A68274B9A4249D103F56043254C9A6983
:1024500042F480529A619A6902F480520192019A80
:102460005A6942F400325A615B6903F40033029303
:10247000029BE023039302230493032306934FF06C
:102480009040052303A90793FEF78EF8164B2360AF
:102490008022002320466360A360E26023616361C1
:1024A000A361E361FDF7BEFF08B1FFF7A7FF0F4A85
:1024B000AC6565620E4C102384E80C0020460023B6
:1024C0008022A360E26023616361A361E361FDF7A1
:1024D000A9FF08B1FFF792FF6C65656209B030BDD6
:1024E00000300140800300201C0002403000024008
:1024F000C403002010B5044688B01422002103A8AC
:1025000000F00EF92268134B9A4220D103F5E6330E
:1025100003A9DA6942F40032DA61DA6902F40032BE
:102520000192019A5A6942F400325A615B6903F4DC
:1025300000330293029B0C2303930223049303238F
:1025400006934FF0904007230793FEF72DF808B04D
:1025500010BD00BF004400407047FEE7FEE7FEE705
:10256000FEE7704770477047FDF7C0BE1020FEF7CA
:10257000FBB800000148FDF7CFBF00BF800300207B
:102580000148FDF7C9BF00BFC403002070B50E4667
:1025900015460C46A31B9D4201DC284670BDAFF3D7
:1025A000008004F8010BF5E770B50E4615460C46A1
:1025B000A31B9D4201DC284670BD14F8010BFFF7F8
:1025C000FBFCF5E708B50A4B1968024609B9094949
:1025D00019601868694602448A4206D900F076F804
:1025E0000C2303604FF0FF3008BD1A6008BD00BF28
:1025F000980000200C0400204FF0FF3070474FF48B
:1026000000534B6000207047012070470020704746
:102610001549D1F8883043F47003C1F88830134B62
:102620001A6842F001021A605868114A02405A6062
:102630001A6822F0847222F480321A601A6822F436
:1026400080221A605A6822F4FE025A60DA6A22F086
:102650000F02DA62186B074A02401A6300229A607E
:102660004FF000638B60704700ED00E00010024007
:102670000CC07FF8CCFC00FFDFF834D0002103E071
:102680000C4B5B58435004310B480C4B42189A4298
:10269000F6D30B4A02E0002342F8043B094B9A426E
:1026A000F9D3FFF7B5FF00F017F8FFF7D9FDFEE704
:1026B000000001203C3B00080000002070000020CA
:1026C000700000200C040020FEE70000014B186899
:1026D000704700BF0C00002070B50D4E0D4CA41BC0
:1026E000A4100025A54209D10B4E0C4C00F07CFF34
:1026F000A41BA4100025A54205D170BD56F82530B5
:1027000098470135EEE756F8253098470135F2E74E
:10271000343B0008343B0008343B0008383B0008D9
:1027200002440346934200D1704703F8011BF9E7C6
:102730000FB40A4B13B51C6824B1A36913B9204622
:1027400000F024FA05AB049AA1680193204600F03A
:10275000E1FB02B0BDE8104004B070470C0000205F
:1027600070B50E46054618B183690BB900F00EFA34
:10277000AB69AC6813B9284600F008FA234B9C42B9
:1027800017D16C68A3891B071DD52369DBB1013EF6
:10279000A36816F8011F013BA360E9B9002B2EDAEC
:1027A00022460A21284600F03FF8013011D00A20C5
:1027B00070BD174B9C4201D1AC68E3E7154B9C42BE
:1027C00008BFEC68DEE72146284600F07FF80028C5
:1027D000DDD04FF0FF3070BD002B04DAA2699342C8
:1027E00006DB0A2904D023685A1C22601970CFE73F
:1027F0002246284600F018F80130C9D1E9E72368DD
:102800000A205A1C2260187070BD00BFC03A000830
:10281000E03A0008A03A0008024B01461868FFF7AA
:102820009FBF00BF0C000020F8B50E4614460546B9
:1028300018B183690BB900F0A9F9214B9C422AD148
:102840006C68A369A360A3891A072ED5236963B3B3
:1028500023692068C01A6369F6B29842374604DBE0
:102860002146284600F028F928BBA368013BA36055
:1028700023685A1C22601E7063690130984204D09C
:10288000A389DB0719D50A2E17D12146284600F067
:1028900013F990B10FE00B4B9C4201D1AC68D0E72B
:1028A000094B9C4208BFEC68CBE72146284600F064
:1028B0000DF80028CCD04FF0FF373846F8BD00BFE8
:1028C000C03A0008E03A0008A03A0008324B70B560
:1028D0001D6806460C4625B1AB6913B9284600F0C1
:1028E00055F92E4B9C420FD16C68B4F90C309AB25A
:1028F00015072CD4D00611D40922326043F04003CE
:10290000A3814FF0FF3070BD254B9C4201D1AC68D4
:10291000EBE7244B9C4208BFEC68E6E7510712D571
:10292000616B41B104F14403994202D0304600F09A
:102930001BFA00236363A38923F02403A3810023EC
:10294000636023692360A38943F00803A38123699B
:102950004BB9A38903F42073B3F5007F03D021465C
:10296000304600F0C1F9A28912F001030CD0002317
:10297000A36063695B42A361236953B9B4F90C3066
:1029800013F08000BAD170BD920758BF6369A3608D
:10299000F2E70020F7E700BF0C000020C03A000873
:1029A000E03A0008A03A00088A892DE9F04105467E
:1029B00010070C465AD44B68002B05DC0B6C002B1F
:1029C00002DC0020BDE8F081E66A002EF9D0002389
:1029D00012F480522F682B6033D0606DA3895A07A0
:1029E00005D56368C01A636B0BB1236CC01A002352
:1029F0000246E66A216A2846B047431CA38906D1ED
:102A000029681D294BD82B4ACA40D60747D5002232
:102A10006260D9042269226004D5421C01D12B686E
:102A200003B96065616B2F600029CAD004F14403CB
:102A3000994202D0284600F097F900206063BDE873
:102A4000F081216A01232846B047411CC6D12B687A
:102A5000002BC3D01D2B01D0162B01D12F60B0E766
:102A6000A38943F04003A381BDE8F0810F69002FE3
:102A7000A7D093070E6808BF4B690F6018BF0023EB
:102A8000A6EB07088B60B8F1000F9ADD43463A4683
:102A9000216AA66A2846B047002807DCA38943F0CC
:102AA0004003A3814FF0FF30BDE8F0810744A8EB5D
:102AB0000008E8E70100402038B50B6905460C46E0
:102AC000DBB118B183690BB900F060F80C4B9C4284
:102AD00009D16C68B4F90C307BB121462846BDE8B9
:102AE0003840FFF761BF074B9C4201D1AC68F1E76A
:102AF000054B9C4208BFEC68ECE7002038BD00BFE6
:102B0000C03A0008E03A0008A03A0008014900F085
:102B1000A9B800BFB92A0008002310B50446036015
:102B20004360836081814366C28103614361836145
:102B3000194608225C30FFF7F3FD054B6362054B35
:102B4000A362054BE362054B2462236310BD00BF03
:102B50008D340008AF340008E73400080B35000856
:102B600070B54A1E682555430E4605F1740100F004
:102B700049F9044640B1002180E842000C30A060D1
:102B800005F16802FFF7CCFD204670BD836910B5E2
:102B9000044633BB8364C3640365124B124A1B684B
:102BA0008262984204BF0123836100F01FF86060D5
:102BB000204600F01BF8A060204600F017F8002225
:102BC000E06004216068FFF7A7FF01220921A068E7
:102BD000FFF7A2FF02221221E068FFF79DFF012309
:102BE000A36110BD9C3A00080D2B0008F8B51C4BE2
:102BF0001E68B369074613B93046FFF7C7FF48366A
:102C0000B4687368013B03D5336833B13668F7E7BE
:102C1000B4F90C506DB16834F4E704213846FFF77D
:102C20009FFF30600028F1D10C233B600446204612
:102C3000F8BD4FF6FF73E3810123A381656625602C
:102C4000A560656025616561A5610822294604F1DA
:102C50005C00FFF765FD6563A563A564E564E6E7D1
:102C60009C3A00082DE9F8438046894600F1480463
:102C7000002614B93046BDE8F883A5686768013FAF
:102C800001D52468F5E7AB89012B07D9B5F90E30DA
:102C9000013303D029464046C84706436835EEE76E
:102CA00070B50E46B1F90E10002990B014461D46BD
:102CB00007DA00232B60B3891A0610D44FF480631F
:102CC0000EE001AA00F048FC0028F2DB029A02F4B0
:102CD0007042A2F500535A425A412A60EEE740235F
:102CE0000020236010B070BD8B8973B59D07064628
:102CF0000C4607D504F14703236023610123636178
:102D000002B070BD01AB6A46FFF7CAFF00990546E5
:102D1000304600F077F848B9B4F90C309A05EFD492
:102D200023F0030343F00203A381E3E70D4BB362F7
:102D3000A389206043F08003A381009B6361019B12
:102D400020615BB1B4F90E10304600F017FC28B1D9
:102D5000A38923F0030343F00103A381A3891D4347
:102D6000A581CDE70D2B000838B50546002945D0D3
:102D700051F8043C0C1F002BB8BFE41800F020FCF5
:102D80001F4A1368104633B9636014602846BDE8D3
:102D9000384000F016BCA3420CD921686218934257
:102DA00004BF1A685B68636004BF52182260046045
:102DB000ECE713465A680AB1A242FAD919685818C2
:102DC000A0420BD120680144581882421960DDD11D
:102DD000106852685A6001441960D7E702D90C2381
:102DE0002B60D3E7206821188A4204BF116852681B
:102DF000626004BF091821605C60C7E738BD00BF8E
:102E00009C00002070B5CD1C25F0030508350C2D65
:102E100038BF0C25002D064601DBA94203D90C233F
:102E20003360002070BD00F0CBFB234A14682146BC
:102E300091B9224C23681BB9304600F017FB206083
:102E40002946304600F012FB431C26D10C23336088
:102E5000304600F0B6FBE4E70B685B1B1AD40B2B83
:102E60000FD90B60CD50CC18304600F0AAFB04F10E
:102E70000B00231D20F00700C31A1BD05A42E2505A
:102E800070BD8C420DBF63684B686360136018BFF0
:102E90000C46E9E70C464968CAE7C41C24F0030461
:102EA000A04205D0211A304600F0E0FA0130CDD022
:102EB0002560D9E770BD00BF9C000020A000002065
:102EC0009368013B002B10B4936009DA9469A34224
:102ED00002DBCBB20A2B03D15DF8044BFFF7A4BC95
:102EE0001368581C10601970C8B25DF8044B704725
:102EF000F8B506460F461446D518AC4201D100205D
:102F000007E03A4614F8011B3046FFF7D9FF431C8F
:102F1000F3D1F8BD2DE9F04F9DB00C461746039351
:102F2000064618B183690BB9FFF730FE7C4B9C4213
:102F300057D17468A38918075DD52369002B5AD02F
:102F40000023099320238DF8293030238DF82A306F
:102F50004FF0010BB846454615F8013B002B55D103
:102F6000B8EB070A0BD053463A4621463046FFF7E6
:102F7000BFFF013000F0C480099B5344099398F8C7
:102F80000030002B00F0BC8000234FF0FF32049390
:102F90000793059206938DF853301A9305222978EA
:102FA0006048FDF71DF905F10108049B002831D1A7
:102FB000D90644BF20228DF853201A0744BF2B2284
:102FC0008DF853202A782A2A2CD0079A00210A202B
:102FD000A846013598F80030303B092B6DD971B304
:102FE00026E0514B9C4201D1B468A3E74F4B9C4271
:102FF00008BFF4689EE721463046FFF767FC0028CB
:103000009ED04FF0FF301DB0BDE8F08F252BA7D02C
:10301000A846A0E7434A801A0BFA00F01843049030
:103020004546BBE7039A111D12680391002A01DB94
:10303000079204E0524243F002030792049398F887
:1030400000302E2B10D198F801302A2B08F1010105
:1030500037D1039B1A1D1B680392002BB8BF4FF09A
:10306000FF3308F102080593314D98F80010032250
:103070002846FDF7B5F840B14023401B03FA00F0A5
:10308000049B0343049308F1010898F800102948B1
:103090008DF82810062208F10107FDF7A1F8002895
:1030A00034D0254B03BB039B073323F007030833BE
:1030B0000393099B4B4409934CE700FB0232012127
:1030C00086E70023059318460A258846013198F8BB
:1030D0000020303A092A03D9002BC5D00590C3E758
:1030E00005FB00200123F0E703AB00932246134BBE
:1030F00004A93046AFF30080B0F1FF3F8146D8D13C
:10310000A3895B063FF57DAF09987CE703AB00938D
:1031100022460A4B04A9304600F088F8ECE700BFCD
:10312000C03A0008003B0008E03A0008A03A000856
:10313000063B00080A3B000800000000F12E0008D2
:103140002DE9F04791461F468A680B69DDF820801B
:103150009342B8BF1346C9F8003091F843200646A1
:103160000C4612B10133C9F800302368990642BFFA
:10317000D9F800300233C9F80030256815F006058B
:1031800007D104F1190AE368D9F800209B1A9D427F
:1031900029DB94F843302268003318BF01239206DC
:1031A0002ED404F1430239463046C047013021D0C5
:1031B0002368E568D9F8002003F00603042B08BF54
:1031C000AD1AA36822690CBF25EAE5750025934274
:1031D000C4BF9B1AED184FF000091A344D451BD19E
:1031E0000020BDE8F0870123524639463046C047EB
:1031F000013003D14FF0FF30BDE8F0870135C2E761
:10320000E1185A1C302081F84300224494F84510FC
:1032100082F843100233C4E7012322463946304680
:10322000C0470130E6D009F10109D7E72DE9F043A5
:1032300017460A7E85B06E2A984606460C460C9BB9
:1032400001F1430E00F0BC801AD8632A2ED00AD8B0
:10325000002A00F0C880582A00F08A8004F1420554
:1032600084F842202AE0642A01D0692AF6D1216834
:103270001A6811F0800F23D0111D1960136827E020
:10328000732A00F0B48008D86F2A2AD0702AE5D1BA
:103290000A6842F020020A6003E0752A21D0782AE9
:1032A000DCD1782284F845206E4964E01A6801F187
:1032B0004205111D1960136884F842300123A3E010
:1032C00011F0400F02F104011960D7D0B2F90030BB
:1032D000002B03DA2D225B4284F8432062490A2244
:1032E00017E02068196810F0800F03D0081D1860DF
:1032F0000B6806E010F0400F01F104001860F7D0F1
:103300000B8859496F2A14BF0A220822002084F82A
:1033100043006568A560002DC0F29C80206820F005
:1033200004002060002B3FD1002D40F095807546B1
:10333000082A0BD12368DA0708D5236962689A4204
:10334000DEBF302305F8013C05F1FF35AEEB050388
:103350002361CDF800803B4603AA21463046FFF7A3
:10336000EFFE013055D14FF0FF3005B0BDE8F083DE
:1033700081F845203C492268186812F0800F00F15E
:1033800004051D6001D0036802E05506FBD50388E3
:10339000D00744BF42F0200222601BB9226822F00D
:1033A000200222601022B1E77546B3FBF2F002FB67
:1033B0001033CB5C05F8013D03460028F5D1B7E793
:1033C00008681A68496910F0800F04D0101D186051
:1033D0001368196007E010F0400F02F10400186054
:1033E0001368F6D01980002323617546B1E71A6887
:1033F000111D19601568626800212846FCF7F0FE6F
:1034000008B1401B606063682361002384F8433087
:103410009FE723692A4639463046C0470130A2D08B
:1034200023689B0707D5002504F11909E368039A6F
:103430009B1A9D4205DBE068039B9842B8BF184683
:1034400093E701234A4639463046C04701308AD0C7
:103450000135EBE7002BA7D10B7884F8423004F15B
:10346000420565E7223B0008113B000838B5064CD1
:103470000023054608462360FFF7A4F8431C02D149
:10348000236803B12B6038BD0804002010B50C463A
:10349000B1F90E1000F096F80028ABBF636DA38958
:1034A0001B1823F48053ACBF6365A38110BD2DE9C5
:1034B000F0411F468B89DB0505460C46164605D5AF
:1034C00002230022B1F90E1000F068F8A389B4F9C4
:1034D0000E1023F48053A38132463B462846BDE8B4
:1034E000F04100F017B810B50C46B1F90E1000F01D
:1034F00055F8431CA38915BF606523F4805343F43A
:103500008053A38118BFA38110BDB1F90E1000F044
:1035100013B8000038B5074C05460846114600228E
:1035200022601A46FFF740F8431C02D1236803B11A
:103530002B6038BD0804002038B5064C0023054632
:1035400008462360FFF758F8431C02D1236803B1F3
:103550002B6038BD0804002038B5074C0023054611
:10356000084611462360FFF74AF8431C02D123683E
:1035700003B12B6038BD00BF0804002038B5064CED
:103580000023054608462360FFF73EF8431C02D19E
:10359000236803B12B6038BD0804002038B5074C00
:1035A000054608461146002222601A46FFF72EF80B
:1035B000431C02D1236803B12B6038BD08040020EE
:1035C0007047704738B5074C05460846114600223B
:1035D00022601A46FEF7DAFF431C02D1236803B1CA
:1035E0002B6038BD08040020F8B500BFF8BC08BC4B
:1035F0009E467047F8B500BFF8BC08BC9E467047B1
:1036000002030405060708090A0B0C0D0E0F101023
:103610000102030405060708090A0B0C0D0E0F1022
:1036200001040802435243204552524F523A2000AF
:103630005265636965766564203078257820627507
:10364000742063616C63756C6174656420307825E7
:10365000780D0A00496E69742066696E6973686541
:10366000640D004D657373616765205374617473F5
:103670002050202564094520256409522025640D29
:103680000A00000000000000FB4C86000DD58A00F7
:10369000F6990C00E1E693001AAA1500EC33190024
:1036A000177F9F003981A100C2CD270034542B0021
:1036B000CF18AD00D8673200232BB400D5B2B800C4
:1036C0002EFE3E00894EC50072024300849B4F00CF
:1036D0007FD7C90068A8560093E4D000657DDC0060
:1036E0009E315A00B0CF64004B83E200BD1AEE0059
:1036F000465668005129F700AA6571005CFC7D0000
:10370000A7B0FB00E9D10C00129D8A00E4048600FA
:103710001F48000008379F00F37B190005E21500E1
:10372000FEAE9300D050AD002B1C2B00DD85270092
:1037300026C9A10031B63E00CAFAB8003C63B40005
:10374000C72F3200609FC9009BD34F006D4A4300D2
:103750009606C50081795A007A35DC008CACD00021
:1037600077E05600591E6800A252EE0054CBE200EA
:10377000AF876400B8F8FB0043B47D00B52D71003D
:103780004E61F700D2A3190029EF9F00DF76930066
:10379000243A150033458A00C8090C003E90000009
:1037A000C5DC8600EB22B800106E3E00E6F7320062
:1037B0001DBBB4000AC42B00F188AD000711A100A5
:1037C000FC5D27005BEDDC00A0A15A0056385600D6
:1037D000AD74D000BA0B4F004147C900B7DEC50039
:1037E0004C924300626C7D009920FB006FB9F7009A
:1037F00094F57100838AEE0078C668008E5F6400DD
:103800007513E2003B721500C03E930036A79F007F
:10381000CDEB1900DA94860021D80000D7410C00C6
:103820002C0D8A0002F3B400F9BF32000F263E00CF
:10383000F46AB800E31527001859A100EEC0AD00E6
:10384000158C2B00B23CD00049705600BFE95A00DD
:1038500044A5DC0053DA4300A896C5005E0FC900FA
:10386000A5434F008BBD710070F1F7008668FB0027
:103870007D247D006A5BE20091176400678E68001A
:103880009CC2EE00A44733005F0BB500A992B900BB
:1038900052DE3F0045A1A000BEED260048742A007C
:1038A000B338AC009DC69200668A140090131800CD
:1038B0006B5F9E007C200100876C870071F58B0098
:1038C0008AB90D002D09F600D645700020DC7C0079
:1038D000DB90FA00CCEF650037A3E300C13AEF00BC
:1038E0003A76690014885700EFC4D100195DDD00F5
:1038F000E2115B00F56EC4000E224200F8BB4E00E0
:1039000003F7C8004D963F00B6DAB9004043B50052
:10391000BB0F3300AC70AC00573C2A00A1A52600B9
:103920005AE9A00074179E008F5B180079C214003A
:10393000828E920095F10D006EBD8B009824870059
:1039400063680100C4D8FA003F947C00C90D700080
:103950003241F600253E6900DE72EF0028EBE300FD
:10396000D3A76500FD595B000615DD00F08CD10082
:103970000BC057001CBFC800E7F34E00116A42009D
:10398000EA26C40076E42A008DA8AC007B31A000B2
:10399000807D26009702B9006C4E3F009AD7330015
:1039A000619BB5004F658B00B4290D0042B001004A
:1039B000B9FC8700AE83180055CF9E00A356920035
:1039C000581A1400FFAAEF0004E66900F27F6500B0
:1039D0000933E3001E4C7C00E500FA001399F60061
:1039E000E8D57000C62B4E003D67C800CBFEC40072
:1039F00030B2420027CDDD00DC815B002A18570081
:103A0000D154D1009F3526006479A00092E0AC002B
:103A100069AC2A007ED3B500859F330073063F0052
:103A2000884AB900A6B487005DF80100AB610D00BB
:103A3000502D8B0047521400BC1E92004A879E00F6
:103A4000B1CB1800167BE300ED3765001BAE6900B3
:103A5000E0E2EF00F79D70000CD1F600FA48FA00A2
:103A600001047C002FFA4200D4B6C400222FC80003
:103A7000D9634E00CE1CD10035505700C3C95B003E
:103A80003885DD0000000000000000000102030492
:103A900006070809000000000102030410000020CE
:103AA0000000000000000000000000000000000016
:103AB0000000000000000000000000000000000006
:103AC00000000000000000000000000000000000F6
:103AD00000000000000000000000000000000000E6
:103AE00000000000000000000000000000000000D6
:103AF00000000000000000000000000000000000C6
:103B0000232D302B2000686C4C00656667454647C6
:103B10000030313233343536373839414243444549
:103B200046003031323334353637383961626364B8
:043B300065660000C6
:043B3400C5010008BF
:043B3800A1010008DF
:103B3C00010000001000000000127A0010000020AC
:103B4C0000000000C03A0008E03A0008A03A000863
:103B5C000000000000000000000000000000000059
:103B6C000000000000000000000000000000000049
:103B7C000000000000000000000000000000000039
:103B8C000000000000000000000000000000000029
:103B9C000000000000000000000000000000000019
:040000050800267950
:00000001FF
